:020000040800F2
:1000000070060020350200082B0D0008910C000836
:10001000290D00082B040008C50D00080000000091
:100020000000000000000000000000002F0D00088C
:100030002D040008000000002D0D0008310D0008FF
:100040004F0200084F0200084F0200084F0200084C
:100050004F0200084F0200084F0200084F0200083C
:100060004F0200084F0200084F0200084F0200082C
:100070004F0200084F0200084F0200084F0200081C
:100080004F0200084F0200084F0200080000000065
:100090000000000000000000000000004F02000807
:1000A0004F0200084F0200084F0200084F020008EC
:1000B0004F0200084F0200084F0200084F020008DC
:1000C0004F0200084F0200084F0200084F020008CC
:1000D0004F0200084F0200084F0200080000000015
:1000E0004F0200084F0200084F0200080000000005
:1000F0000000000000000000000000004F020008A7
:10010000000000004F0200084F0200084F020008E4
:1001100000000000000000000000000000000000DF
:100120004F0200084F0200084F0200084F0200086B
:100130004F02000800000000000000000000000066
:100140000000000000000000000000004F02000856
:100150004F0200084F0200084F0200084F0200083B
:100160004F0200084F0200080000000000000000DD
:10017000000000000000000000000000000000007F
:10018000000000004F020008000000000000000016
:100190004F02000800F002F800F03CF80AA090E8D6
:1001A000000C82448344AAF10107DA4501D100F032
:1001B00031F8AFF2090EBAE80F0013F0010F18BFC3
:1001C000FB1A43F001031847A4150000C4150000F2
:1001D000103A24BF78C878C1FAD8520724BF30C873
:1001E00030C144BF04680C60704700000023002445
:1001F00000250026103A28BF78C1FBD8520728BF37
:1002000030C148BF0B6070471FB501F0A1FA1FBD98
:1002100010B510BD00F0CFF81146FFF7F5FF00F064
:1002200099FE00F0EDF803B4FFF7F2FF03BC00F015
:10023000F5F800000948804709480047FEE7FEE757
:10024000FEE7FEE7FEE7FEE7FEE7FEE7FEE7FEE786
:1002500004480549054A064B70470000B50D0008E3
:100260009501000870000020700600207002002038
:100270007002002053EA020C00F069802DE9F04B77
:100280004FF00006002B1FBFB3FA83F503FA05F405
:1002900024FA05F65E4012BF1643B2FA82F502FA5E
:1002A00005F4C5F120051EBF22FA05FC44EA0C0442
:1002B000203556EA044C4FEA144418BF641C4FF032
:1002C00000084FF00009904271EB030C39D300296C
:1002D00019BFB1FA81F701FA07F6B0FA80F700FA10
:1002E00007F6C7F120071EBF20FA07FC46EA0C06F6
:1002F0002037B6FBF4FCA7EB0507103F07F01F0BF8
:10030000CBF120060CFA0BFB2CFA06F644BFB346E1
:100310000026202FA4BF5E464FF0000B5BEA060CC0
:1003200008BF4FF0010B19EB0B09ABFB027C48EB4C
:100330000608C01B06FB02CC0BFB03CC71EB0C01C7
:10034000C1E70B46024641464846BDE8F08B13B56F
:100350004FF000004FF00001AFF30080BDE81C40FB
:1003600070474FF0000200B5134694469646203978
:1003700022BFA0E80C50A0E80C50B1F12001BFF45E
:10038000F7AF090728BFA0E80C5048BF0CC05DF8C4
:1003900004EB890028BF40F8042B08BF704748BF12
:1003A00020F8022B11F0804F18BF00F8012B704786
:1003B000704770477047754600F02CF8AE46050050
:1003C0006946534620F00700854618B020B5FFF770
:1003D0003FFFBDE820404FF000064FF000074FF010
:1003E00000084FF0000B21F00701AC46ACE8C00953
:1003F000ACE8C009ACE8C009ACE8C0098D4670475C
:1004000010B50446AFF300802046BDE81040FFF76A
:100410000ABF000000487047100000200149182062
:10042000ABBEFEE7260002007047FEE77047000003
:1004300070B5044600F004F90546601C02D004487B
:100440000078044400F0FCF8401BA042FAD370BDD1
:10045000000000202DE9F84FDFF8B8A100220124A8
:100460000AF1040B03254FF00F090BF1040E00BF36
:100470000B6804FA02F63340B34273D10F7907F0E8
:100480000307012F01D0022F16D187684FEA4208D7
:1004900005FA08FC27EA0C07D1F80CC00CFA08FC96
:1004A0004CEA070CC0F808C04768B7430E79C6F39A
:1004B000001696403E4346600E79F643B6070DD0CF
:1004C000C768560005FA06FC27EA0C07D1F808C0F1
:1004D0000CFA06FC4CEA070CC0F80CC00E7906F0CA
:1004E0000306022E10D1D60800EB8608D8F820604B
:1004F00057074FEAD76C09FA0CF7BE430F6907FAA2
:100500000CF73743C8F8207006684FEA420C05FA2A
:100510000CF7BE430F7907F0030707FA0CF73743D0
:1005200007604E6816F4403F6DD03B4E376847F485
:1005300080473760366822F0030706F4804600964D
:10054000364E07EB060CDCF8086897073F0F09FAF0
:1005500007F826EA0806DFF8C880404503D14FF0C7
:1005600000081EE04FE0DFF8BC80404502D14FF0AC
:10057000010816E0DFF8B080404502D14FF00208D4
:100580000FE0DFF8A880404502D14FF0030808E0F3
:10059000DFF89C80404502D14FF0040801E04FF0A5
:1005A000070808FA07F848EA0608CCF80888DAF8D5
:1005B00000605746D1F804C09E435FEACC3C00D5AA
:1005C0001E433E60DBF800605F46D1F804C09E43E6
:1005D0005FEA8C3C00D51E433E60DEF80060774643
:1005E000D1F804C09E435FEACC2C00D51E433E6088
:1005F000084F0C373E68D1F804C09E435FEA8C2C4C
:1006000000D51E433E60521C102AFFF431AFBDE8F6
:10061000F88F0000003C01404438024000300140A7
:10062000000002400004024000080240000C0240AA
:10063000001002400AB1816170470904FBE7000025
:10064000014880687047000000000020024881686F
:100650000278114481607047000000200B4810B5FB
:10066000016841F400710160016841F4806101603A
:10067000016841F480710160032000F061F80F20EF
:1006800000F006F800F024F8002010BD003C024005
:1006900070B50D4D04464FF47A712878B1FBF0F037
:1006A0000A490968B1FBF0F000F0DEFA48B9102CF5
:1006B00007D200222146501E00F022F800206C6074
:1006C00070BD012070BD0000000000200C00002063
:1006D0000A4808B5016841F480410160006800F4EF
:1006E000804000900548001F016841F08051016082
:1006F000006800F08050009008BD000044380240BF
:10070000F0B40E4B1B680C46C3F30223C3F107057C
:10071000042D00D90425191D072901D2002300E06A
:10072000DB1E012606FA05F1491E214099409E4034
:10073000761E16403143F0BC00F045BB0CED00E0E6
:10074000064900F0070208684FF6FF03184040EA28
:100750000220034A10430860704700000CED00E0DF
:100760000000FA052DE9F0470E46050065D0DFF8D8
:100770001481D8F80000F7B200F00700B04207D2A9
:1007800088F80070D8F8000000F00700B04254D19B
:1007900028683D4C810712D5400703D5206840F4F6
:1007A000E05020602878000703D5206840F46040BE
:1007B00020602068A96820F0F000084320602878B5
:1007C000C0072DD0304968680839012812D00228A6
:1007D00013D0032811D00968890700292DDA216870
:1007E00021F0030101432160FFF72AFF814641F216
:1007F000883A0EE009688903EFE709688901ECE7A8
:10080000FFF71EFFA0EB0901514502D90320BDE807
:10081000F0872068696800F00C00B0EB810FEFD121
:10082000D8F80010404601F00701B14207D907701F
:10083000006800F00700B04201D00120E7E7287807
:10084000400705D52068E96820F4E050084320609F
:100850002878000706D52068296920F4604040EA1E
:10086000C100206000F018F82168084AC1F30311A4
:10087000515CC8400649086006480068FFF708FF59
:100880000020C4E7003C0240083802405A17000824
:100890000C00002004000020154810B5006810F07E
:1008A0000C02144813D01449042A0FD0082A0ED180
:1008B0000F4C241F2268236802F03F025B0207D519
:1008C0002068C0F38810A0FB010106E0084610BDB7
:1008D0002168C1F38811A1FB00010023FFF7CAFCC6
:1008E0002168C1F30141491C4900B0FBF1F010BD82
:1008F000083802400024F40040787D012DE9F84FCB
:1009000004006ED02078DFF84C93C007A9F10405ED
:100910004AD009F104000168C1F38101012908D01E
:100920000068C0F3810002280AD1D9F80000400213
:1009300006D52868800337D560680028E1D033E009
:100940006068B0F5803F10D0B0F5A02F286810D0B7
:1009500020F480302860286820F4802028606068B7
:10096000A8B1FFF76DFE06460DE0286840F4803020
:10097000F4E740F480202860F7E700BFFFF760FE4F
:10098000801B642873D828688003F7D50CE0FFF734
:1009900057FE064605E000BFFFF752FE801B6428A5
:1009A000F0D828688003F7D42078DFF8AC8280077D
:1009B0004FF0000A3ED5A748001D016811F00C0F4A
:1009C00008D00068C0F3810002280BD1D9F80000DC
:1009D000400207D42868800716D5E068012800D1B6
:1009E00012E033E1E068B8B10120C8F80000FFF779
:1009F00027FE064605E000BFFFF722FE801B022807
:100A0000C0D828688007F7D52868216920F0F80049
:100A100040EAC10028600DE0C8F800A0FFF710FE12
:100A2000064604E0FFF70CFE801B02281FD828684A
:100A30008007F7D42078000722D5864F8748616960
:100A4000703771B101210160FFF7FAFD064604E03D
:100A5000FFF7F6FD801B022809D838688007F7D514
:100A60000EE0C0F800A0FFF7EBFD064605E082E0CF
:100A7000FFF7E6FD801B02287DD838688007F7D491
:100A80002078400768D5DFF8CCB100270BF13C0B8C
:100A9000DBF80000C0000BD4DBF8001041F08051FF
:100AA000CBF80010DBF80000012700F08050009028
:100AB0006B4E3068C00510D4306840F480703060F0
:100AC000FFF7BEFD009005E0FFF7BAFD0099401A60
:100AD000022850D83068C005F6D55E4EA0686C3646
:100AE00001280FD00528306810D020F001003060B8
:100AF000306820F004003060A068B8B1FFF7A0FDB6
:100B000000900FE0306840F00100F4E740F004008E
:100B10003060F7E7FFF794FD0099411A41F2883001
:100B2000814266D830688007F4D50EE0FFF788FD73
:100B3000009007E0FFF784FD0099411A41F28830E8
:100B4000814256D830688007F4D42FB1DBF800100A
:100B500021F08051CBF80010A069C8B33D49091DB0
:100B60000968C1F3810102294AD00228504607D002
:100B7000C8F8600000E03CE0FFF762FD04463BE09F
:100B80004746C8F86000FFF75BFD064605E000BF7A
:100B9000FFF756FD801B02282BD828688001F7D468
:100BA000D4E907010843A16A2E4A490802EB014132
:100BB000626A41EA8211084394F82C1040EA01610C
:100BC000C9F8001001203866FFF73AFD044606E038
:100BD0003EE000BFFFF734FD001B022809D828685B
:100BE0008001F7D534E000BFFFF72AFD001B022883
:100BF00002D90320BDE8F88F28688001F4D427E0EB
:100C00000128F7D0D9F80000E26900F48001914290
:100C10001CD1226A00F03F01914217D147F6C07102
:100C2000626A0140B1EB821F10D1A26A4FF0FF331C
:100C300000F4403103EB5202B1EB024F06D194F8BD
:100C40002C1000F07060B0EB016F01D00120D1E7F3
:100C50000020CFE70438024000004742800E4742A0
:100C6000007000400000FFFF10B5401EB0F1807F13
:100C700001D3012010BD4FF0E02460610F21601707
:100C800000F0A1F80020A06107202061002010BD25
:100C9000FEE700002DE9F04186B014216846FFF719
:100CA00060FB1E480024016841F0100101600168EA
:100CB00001F010010591016841F00801016001682F
:100CC00001F008010591016841F00101016000682F
:100CD000134F00F001004FF6FF75059000222946E2
:100CE0003846FFF7A7FCDFF83C8000222946404643
:100CF000FFF7A0FC01260095CDE90164694638465E
:100D00000394FFF7A7FB0095CDE9016469464046CF
:100D10000394FFF79FFB06B0BDE8F0813038024036
:100D200000100240000C0240FEE7FEE770477047EB
:100D3000FFF78CBC10B592B030216846FFF711FB6D
:100D400014210CA8FFF70DFB18480024016841F09E
:100D500080510160006800F08050119014480168D3
:100D600021F4404141F4004101600068069400F420
:100D70004040119002200090012003901020049028
:100D80006846FFF7BBFD08B172B6FEE70F20CDE95C
:100D90000C040E940F9400210CA81094FFF7E2FCB1
:100DA000002801D072B6FEE712B010BD40380240F4
:100DB000007000400248016841F470010160704712
:100DC00088ED00E0FEE70907090E002804DB00F1CA
:100DD000E02080F80014704700F00F0000F1E020E0
:100DE00080F8141D704700002DE9F05F574C012278
:100DF00011462046FFF71EFC012202212046FFF784
:100E000019FC012204212046FFF714FC01220821CD
:100E10002046FFF70FFC012210212046FFF70AFCB5
:100E2000012220212046FFF705FC01224021204617
:100E3000FFF700FC012280212046FFF7FBFB012287
:100E4000150229462046FFF7F5FB012256023146DE
:100E50002046FFF7EFFB0122970239462046FFF7B5
:100E6000E9FB4FF40068012241462046FFF7E2FB10
:100E70004FF48059012249462046FFF7DBFB4FF42F
:100E8000005A012251462046FFF7D4FB4FF4804B15
:100E9000012259462046FFF7CDFB0122D10320460F
:100EA000FFF7C8FB2A4C012211462046FFF7C2FB80
:100EB000012202212046FFF7BDFB0122042120462A
:100EC000FFF7B8FB012208212046FFF7B3FB012200
:100ED00010212046FFF7AEFB012220212046FFF71C
:100EE000A9FB012240212046FFF7A4FB012280211B
:100EF0002046FFF79FFB012229462046FFF79AFB79
:100F0000012231462046FFF795FB01223946204653
:100F1000FFF790FB012241462046FFF78BFB0122A1
:100F200049462046FFF786FB012251462046FFF73F
:100F300081FB012259462046FFF77CFB2046BDE895
:100F4000F05F0122D103FFF775BB0000000C0240E7
:100F500000100240FFF782FBFFF7ECFEFFF79AFE5E
:100F60004FF4FA74FFF740FF2046FFF761FA00F0F4
:100F700019F82046FFF75CFA00F018FA2046FFF750
:100F800057FA00F0C9FA2046FFF752FA00F026F9A6
:100F90002046FFF74DFA00F009FA2046FFF748FA1D
:100FA000E0E700002DE9F05F00F000FA4FF4FA747A
:100FB0002046FFF73DFA874D012211462846FFF7EC
:100FC00039FB2046FFF734FA012202212846FFF7B9
:100FD00031FB2046FFF72CFA012204212846FFF7B7
:100FE00029FB2046FFF724FA012208212846FFF7B3
:100FF00021FB2046FFF71CFA012210212846FFF7AB
:1010000019FB2046FFF714FA012220212846FFF79A
:1010100011FB2046FFF70CFA012240212846FFF77A
:1010200009FB2046FFF704FA012280212846FFF73A
:1010300001FB2046FFF7FCF9012216023146284643
:10104000FFF7F8FA2046FFF7F3F901225702394675
:101050002846FFF7EFFA2046FFF7EAF94FF48068D9
:10106000012241462846FFF7E5FA2046FFF7E0F95E
:101070004FF40069012249462846FFF7DBFA204673
:10108000FFF7D6F94FF4805A012251462846FFF760
:10109000D1FA2046FFF7CCF94FF4005B0122594604
:1010A0002846FFF7C7FA2046FFF7C2F9012291034D
:1010B0002846FFF7BFFA2046FFF7BAF90122D1030D
:1010C0002846FFF7B7FA2046FFF7B2F9424D012252
:1010D00011462846FFF7AEFA2046FFF7A9F901228C
:1010E00002212846FFF7A6FA2046FFF7A1F90122C0
:1010F00004212846FFF79EFA2046FFF799F90122BE
:1011000008212846FFF796FA2046FFF791F90122B9
:1011100010212846FFF78EFA2046FFF789F90122B1
:1011200020212846FFF786FA2046FFF781F90122A1
:1011300040212846FFF77EFA2046FFF779F9012281
:1011400080212846FFF776FA2046FFF771F9012241
:1011500031462846FFF76EFA2046FFF769F901226B
:1011600039462846FFF766FA2046FFF761F9012263
:1011700041462846FFF75EFA2046FFF759F901225B
:1011800049462846FFF756FA2046FFF751F9012253
:1011900051462846FFF74EFA2046FFF749F901224B
:1011A00059462846FFF746FA2046FFF741F9012243
:1011B00091032846FFF73EFA2046FFF739F901224E
:1011C000D1032846FFF736FA2046BDE8F05FFFF767
:1011D0002FB90000000C0240001002402DE9F05F22
:1011E00000F0E4F86F4C012211462046FFF722FA86
:1011F0004FF4FA752846FFF71BF901220221204619
:10120000FFF718FA0122684FD60331463846FFF738
:1012100011FA2846FFF70CF9012204212046FFF7B6
:1012200009FA4FF48048012241463846FFF702FA96
:101230002846FFF7FDF8012208212046FFF7FAF9BA
:101240004FF40059012249463846FFF7F3F9284682
:10125000FFF7EEF8012210212046FFF7EBF94FF4DB
:10126000805A012251463846FFF7E4F92846FFF735
:10127000DFF8012220212046FFF7DCF94FF4006B54
:10128000012259463846FFF7D5F92846FFF7D0F82E
:10129000012240212046FFF7CDF901229102384674
:1012A000FFF7C8F92846FFF7C3F80122802120463E
:1012B000FFF7C0F9012251023846FFF7BBF9284673
:1012C000FFF7B6F8012211022046FFF7B3F9012219
:1012D00011023846FFF7AEF92846FFF7A9F80122B8
:1012E00051022046FFF7A6F9012280213846FFF778
:1012F000A1F92846FFF79CF8012291022046FFF74A
:1013000099F9012240213846FFF794F92846FFF762
:101310008FF8012259462046FFF78CF9012220213F
:101320003846FFF787F92846FFF782F80122514631
:101330002046FFF77FF9012210213846FFF77AF99E
:101340002846FFF775F8012249462046FFF772F953
:10135000012208213846FFF76DF92846FFF768F8A3
:10136000012241462046FFF765F901220421384653
:10137000FFF760F92846FFF75BF801223146204667
:10138000FFF758F9012202213846FFF753F92846A2
:10139000FFF74EF83846BDE8F05F01221146FFF72F
:1013A00049B90000000C0240001002402DE9F05F36
:1013B000574C002201212046FFF73CF90022022170
:1013C0002046FFF737F9002204212046FFF732F9C3
:1013D000002208212046FFF72DF900221021204687
:1013E000FFF728F9002220212046FFF723F90022E9
:1013F00040212046FFF71EF9002280212046FFF7FA
:1014000019F9A515002229462046FFF713F966159C
:10141000002231462046FFF70DF9271500223946F4
:101420002046FFF707F94FF40068002241462046A6
:10143000FFF700F94FF48059002249462046FFF794
:10144000F9F84FF4005A002251462046FFF7F2F80F
:101450004FF4804B002259462046FFF7EBF800225C
:10146000E9012046FFF7E6F82A4C00220121204638
:10147000FFF7E0F8002202212046FFF7DBF8002208
:1014800004212046FFF7D6F8002208212046FFF766
:10149000D1F8002210212046FFF7CCF800222021AD
:1014A0002046FFF7C7F8002240212046FFF7C2F888
:1014B000002280212046FFF7BDF800222946204661
:1014C000FFF7B8F8002231462046FFF7B3F80022B4
:1014D00039462046FFF7AEF8002241462046FFF786
:1014E000A9F8002249462046FFF7A4F800225146F9
:1014F0002046FFF79FF8002259462046FFF79AF84A
:101500000022E9012046BDE8F05FFFF793B8000034
:10151000000C0240001002402DE9F05FFFF764FC70
:101520004FF4FA742046FEF783FF874D0022012115
:101530002846FFF77FF82046FEF77AFF00220221B7
:101540002846FFF777F82046FEF772FF00220421B5
:101550002846FFF76FF82046FEF76AFF00220821B1
:101560002846FFF767F82046FEF762FF00221021A9
:101570002846FFF75FF82046FEF75AFF0022202199
:101580002846FFF757F82046FEF752FF0022402179
:101590002846FFF74FF82046FEF74AFF0022802139
:1015A0002846FFF747F82046FEF742FFAE15002217
:1015B00031462846FFF73EF82046FEF739FF6F1503
:1015C000002239462846FFF735F82046FEF730FF5F
:1015D0004FF48068002241462846FFF72BF820464A
:1015E000FEF726FF4FF40069002249462846FFF720
:1015F00021F82046FEF71CFF4FF4805A0022514686
:101600002846FFF717F82046FEF712FF4FF4005B5D
:10161000002259462846FFF70DF82046FEF708FF3E
:101620000022B1012846FFF705F82046FEF700FF2B
:101630000022F1012846FEF7FDFF2046FEF7F8FEE6
:10164000424D002201212846FEF7F4FF2046FEF716
:10165000EFFE002202212846FEF7ECFF2046FEF7AF
:10166000E7FE002204212846FEF7E4FF2046FEF7AD
:10167000DFFE002208212846FEF7DCFF2046FEF7A9
:10168000D7FE002210212846FEF7D4FF2046FEF7A1
:10169000CFFE002220212846FEF7CCFF2046FEF791
:1016A000C7FE002240212846FEF7C4FF2046FEF771
:1016B000BFFE002280212846FEF7BCFF2046FEF731
:1016C000B7FE002231462846FEF7B4FF2046FEF75B
:1016D000AFFE002239462846FEF7ACFF2046FEF753
:1016E000A7FE002241462846FEF7A4FF2046FEF74B
:1016F0009FFE002249462846FEF79CFF2046FEF743
:1017000097FE002251462846FEF794FF2046FEF73A
:101710008FFE002259462846FEF78CFF2046FEF732
:1017200087FE0022B1012846FEF784FF2046FEF71F
:101730007FFE0022F1012846FEF77CFF2046BDE82F
:10174000F05FFEF775BE0000000C02400010024082
:101750004FF04070E1EE100A7047000000000000FA
:101760000000010203040607080900008C170008A6
:101770000000002010000000D00100089C170008A5
:101780001000002060060000EC01000801000000CD
:0C17900010000000000000000024F40025
:040000050800019559
:00000001FF
