:020000040800F2
:10000000B8040020A9010008D31000081910000846
:10001000D1100008D9030008F91000080000000002
:10002000000000000000000000000000D7100008E1
:100030008D04000800000000D5100008D910000849
:10004000C3010008C3010008C3010008C301000880
:10005000C3010008C3010008C3010008C301000870
:10006000C3010008C3010008C3010008C301000860
:10007000C3010008C3010008C3010008C301000850
:10008000C3010008C3010008A50200080000000029
:10009000000000000000000000000000C301000894
:1000A000C3010008C3010008C3010008C301000820
:1000B000C3010008C3010008C3010008C301000810
:1000C000C3010008C3010008C3010008C301000800
:1000D000C3010008C3010008C301000800000000BC
:1000E000C3010008C3010008C301000800000000AC
:1000F000000000000000000000000000C301000834
:1001000000000000C3010008C3010008C30100088B
:1001100000000000000000000000000000000000DF
:10012000DD030008C3010008C3010008C301000883
:10013000C3010008000000000000000000000000F3
:10014000000000000000000000000000C3010008E3
:10015000C3010008C3010008C3010008C30100086F
:10016000C3010008C30100080000000000000000F7
:10017000000000000000000000000000000000007F
:1001800000000000C30100080000000000000000A3
:10019000C3010008DFF80CD000F02AF8004800473F
:1001A00039110008B8040020064880470648004777
:1001B000FEE7FEE7FEE7FEE7FEE7FEE7FEE7FEE717
:1001C000FEE7FEE7DD10000895010008D2B201E06D
:1001D00000F8012B491EFBD270470022F6E710B54C
:1001E00013460A4604461946FFF7F0FF204610BDA5
:1001F000064C074D06E0E06840F0010394E8070074
:1002000098471034AC42F6D3FFF7C8FFB01100088E
:10021000D011000810B50146806B026C12F0500F2F
:1002200005D0026CD20626D500F0DCF910BD016CB9
:1002300041F40071016401688A6812F0405F17D1CF
:10024000027EAAB9CA6A12F4700F02D08A685205F7
:100250000ED44A6822F020024A60016C21F48071B9
:100260000164016CC90403D4016C41F00101016413
:1002700000F0B6F910BD806BC26CBDE810400846B6
:10028000104710B5806B40210164416C41F00401BE
:10029000416400F0A7F910BD10B5806B00F0A1F922
:1002A00010BD0000014800F09EB9000010000020C1
:1002B000464910B54A6822F440324A604A684368A9
:1002C0001A434A6001684A6822F480724A600168F1
:1002D0004A68036942EA03224A6001684A6822F0D8
:1002E00040724A6001684A6883681A434A6001683C
:1002F0008A6822F400628A6001688A68C3681A43C7
:100300008A60816A6FF07062D14201688A6822F067
:1003100070628A6001688A680CD0836A1A438A60B6
:1003200001688A6822F040528A6001688A68C36A5C
:100330001A4301E022F040528A6001688A6822F084
:1003400002028A6001688A68037E42EA43028A6088
:1003500090F82010002901684A680FD042F400622A
:100360004A6001684A6822F460424A6001684A684B
:10037000174C436A04EB43331A4301E022F4006252
:100380004A600168CA6A22F47002CA620168CA6AD5
:10039000838B104C04EB03531A43CA6201688A68CA
:1003A00022F400728A6001688A6890F8303042EA6C
:1003B00043228A6001688A6822F480628A60016848
:1003C0008A68406942EA8020886010BD00230140AD
:1003D00000E0FFFF0000F0FFFEE70000014800F032
:1003E00013BB00005800002001681823CAB2103A5D
:1003F000B2FBF3F2054B6FF30901032A9B5CC36563
:1004000000D9091D8165084670470000A811000841
:1004100010B5014600208B698A6A4FF0C07453B151
:10042000B3F5005F15D072B1012A0CD0022A0AD0B0
:10043000032A09D104E01AB1012A06D0022A03D105
:10044000C96AC90100D5012010BDC96AA142FAD00C
:1004500010BD002AF7D0012AF2D0022AF3D0032AD5
:10046000F3D010BD30B50468256825F480252560DB
:10047000046863608368402B036803D09960006858
:10048000C26030BD9A600068C16030BD704770477F
:100490007047000078B50024009490F83C20012AB1
:1004A00019D0012280F83C200A6807230568092A30
:1004B00013D9EE680A3A02EB420293409E43EE6083
:1004C0000B788A680A3B03EB43039A400368DD68B4
:1004D0002A43DA6010E0022078BD2E6902EB420266
:1004E00093409E432E610B788A6803EB43039A4046
:1004F00003681D692A431A614A681F23072A13D219
:1005000005686E6B521E02EB820293409E436E633F
:100510000B790A885B1E92B203EB83039A4003684F
:100520005D6B2A435A6327E005680D2A12D22E6BB1
:10053000D21F02EB820293409E432E630B790A88FE
:10054000DB1F92B203EB83039A4003681D6B2A43BF
:100550001A6311E0EE6A0D3A02EB820293409E4369
:10056000EE620B790A880D3B92B203EB83039A404B
:100570000368DD6A2A43DA62164B0568144A9D4215
:1005800006D10D68122D03D1556845F480055560DC
:1005900005689D4218D10B68102B01D0112B13D187
:1005A000536843F400035360096810290CD10A49C9
:1005B0000A4A0968B1FBF2F101EB8101490000E050
:1005C000491E00910029FBD180F83C40002078BDF5
:1005D00000230140002001400C00002040420F0099
:1005E00070477047704770B50446006801684268FC
:1005F000C1F34001C2F3401251B34AB3216CC906A2
:1006000003D4216C41F400712164816811F0405FD2
:1006100017D1217EA9B9C16A11F4700F02D0816887
:1006200049050ED4416821F020014160206C20F47E
:1006300080702064206CC00403D4206C40F0010062
:1006400020642046FFF7CCFF21686FF0120008609D
:10065000206801684268C1F38001C2F3C01289B307
:1006600082B3216CC90603D4216C41F4005121648A
:10067000816811F4401F1ED1816B11F4401F02D01C
:100680008168490517D44168490514D4816811F07F
:10069000405F10D1217E71B9416821F08001416035
:1006A000206C20F480502064206CC00503D4206CA2
:1006B00040F0010020642046FFF7EAFE21686FF059
:1006C0000C00086020680168426811F0010FC2F355
:1006D00080120ED06AB10068C0070AD0206C40F4C6
:1006E00080302064204600F046F821686FF0010059
:1006F0000860206801684268C1F34011C2F380625B
:1007000000290DD0002A0BD0616C41F00201616418
:100710006FF0200505602046FFF764FF2068056044
:1007200070BD70B504004FF0000503D0206C0026AA
:1007300010B107E0012070BD204600F01DF866648E
:1007400084F83C60206CC00610D4206C20F48850E3
:1007500040F0020020642046FFF7AAFD6664206C8A
:1007600020F0020040F00100206400E0012584F840
:100770003C60284670BD704770B586B006461421AF
:100780006846FFF72AFD2149306888423BD120485E
:100790000025016841F480710160006800F48070F8
:1007A00005901B481438016841F0010101600068A0
:1007B000694600F001000590012000900320CDE97A
:1007C0000105144800F0A4FA144C1348C4E90005CC
:1007D0000015A560C4E90350400060618000C4E9D1
:1007E000060525622046656200F0DEF908B1FFF7D4
:1007F0004EFEB463002211461220A66300F0C6FB31
:10080000122000F0B5FB06B070BD000000200140D2
:1008100044380240000002401064024058000020AA
:10082000F8B50E4600210446009190F83C000128DE
:1008300007D0012084F83C0020688368DB0702D0E1
:1008400011E00220F8BD836843F0010383602D4866
:100850002D4B0068B0FBF3F000EB400000E0401EC1
:1008600000900028FBD120688368DB0748D0236C08
:1008700040F20165AB4343F4807323644068400554
:1008800005D5206C20F4005040F480502064206C8A
:10089000C00404D5606C20F00600606400E0616470
:1008A00084F83C10A16B1A48184DC863A16B194815
:1008B0000864A16B1848C86421686FF022000860C2
:1008C0002068416841F0806141602068816841F49E
:1008D000807181602168134632464C31A06B00F074
:1008E000CDF96868C006206802D00C49884207D15B
:1008F000816811F0405F03D1816841F080418160DF
:100900000020F8BD0C00002040420F0000230140F1
:100910001502000899020008830200080020014027
:1009200010B50446002094F83C1001290CD0012198
:1009300084F83C1021688A6822F001028A602168EC
:100940008A68D20702D013E0022010BD886820F424
:1009500080708860A06B00F00FF821684A6822F070
:1009600080624A60216C21F4885141F001012164C8
:10097000002184F83C1010BD2DE9F0410446876D3C
:1009800000F096FA064694F835000025022806D0B5
:100990008020606584F834500120BDE8F081206833
:1009A000016821F0160101602068416921F0800191
:1009B0004161206C08B9A06C20B12068016821F069
:1009C000080101602068016821F0010101600BE06D
:1009D00000F06EFA801B052806D92020606504F817
:1009E000345F03206070D8E720680068C007EFD14B
:1009F00094F85C103F208840B86004F8345F012010
:100A000060700020C9E700002DE9F84304464FF06C
:100A10000009CDF8009063484FF41651A56D0068A9
:100A2000B0FBF1F72E6894F85C10082000FA01F191
:100A300031420FD021680A6852070BD50A6822F0AC
:100A400004020A6094F85C108840A860606D40F071
:100A50000100606594F85C104FF0010808FA01F09D
:100A6000304208D021684969090604D5A860606D44
:100A700040F00200606594F85C1004208840304229
:100A800008D021680968890704D5A860606D40F026
:100A90000400606594F85C1010208840304218D043
:100AA00021680968090714D5A8602068016849030E
:100AB00004D50068000308D5A16C07E00168C905EA
:100AC00003D4016821F008010160216C09B12046BE
:100AD000884794F85C1020208840304231D021684B
:100AE0000968C9062DD5A86094F835000528206846
:100AF000016806D0490347D5006800031DD4616C26
:100B00001CE021F0160101602068416921F080019C
:100B10004161206C08B9A06C20B12068016821F007
:100B20000801016094F85C103F208840A86084F8B8
:100B3000349084F83580216D1FE0E16B09B12046C7
:100B40008847606D00282BD0606DC00714D0052049
:100B500084F835002068016821F0010101600098E7
:100B6000401C0090B84203D820680068C007F6D146
:100B700084F8349084F83580E16C002910D001B0FD
:100B80002046BDE8F04308470168C905D5D401688F
:100B900021F01001016084F8349084F83580CCE7AE
:100BA000BDE8F8830C0000202DE9F041044600F078
:100BB0007FF906465CB1002584F83450022084F8A1
:100BC00035002068016821F0010101600DE001207D
:100BD000BDE8F08100F06CF9801B052805D92020C4
:100BE0006065032084F83500F2E720680068C007DC
:100BF000F0D12268116820480140D4E9010318436C
:100C0000D4E903363343184363691843A36918438F
:100C1000E3691843236A18430843616A042903D12E
:100C2000D4E90B1319430843106020684069666AD1
:100C300020F0070130460E43012704280CD1A06A9A
:100C40000643E06A40B12046FFF7E2FB20B14020B6
:100C5000606584F83570BAE7206846612046FFF782
:100C6000C3FB94F85C203F2191408160656584F866
:100C700035700020ACE700003F8010F02DE9F04116
:100C80000446866D90F83400002501280DD001201F
:100C900084F8340094F835700020012F07D084F8D0
:100CA000340002252846BDE8F0810220FBE7022738
:100CB00084F8357060652046FFF7D4FB94F85C102B
:100CC0003F208840B0602068016841F01601016053
:100CD000206C20B12068016841F0080101602068A3
:100CE000016841F001010160DCE7000070B50446D5
:100CF00000F0DEF80546601C02D004480078044489
:100D000000F0D6F8401BA042FAD370BD00000020CE
:100D10002DE9F84F00224FF0010803254FF00F0E88
:100D20000B6808FA02F42340A34271D14E68012EE9
:100D300005D0022E03D0112E01D0122E15D18668B7
:100D4000570005FA07FC26EA0C06D1F80CC00CFA8D
:100D500007FC4CEA060CC0F808C04668A6430C79AC
:100D6000C4F30014944034434460C668570005FA45
:100D700007FC8C6826EA0C06BC403443C4604C680F
:100D8000022C01D0122C13D1D40800EB8404A3460A
:100D9000D4F8209054074FEAD46A0EFA0AF629EAEA
:100DA00006090E6906FA0AF646EA0906CBF820603B
:100DB00004680E7924EA0C0406F00306BE402643BC
:100DC00006604C68E40056D52E4C266846F48046F2
:100DD0002660246822F0030604F4804400942A4C20
:100DE0003444A446D4F808489607370F0EFA07F69D
:100DF000B443264EB04201D1002615E0244EB04245
:100E000001D1012610E0234EB04202D102260BE0B0
:100E100031E0214EB04201D1032605E01F4EB04221
:100E200001D1042600E00726BE402643CCF808681E
:100E30001B4E34684F689C43FF0300D51C4334604D
:100E4000174E361D34684F689C43BF0300D51C43C2
:100E50003460134E083634684F689C43FF0200D557
:100E60001C4334600E4E0C3634684F689C43BF02FE
:100E700000D51C433460521C102AFFF451AFBDE86A
:100E8000F88F00004438024000300140000002406A
:100E90000004024000080240000C02400010024022
:100EA000003C01400AB1816170470904FBE7000082
:100EB00001488068704700000000002002488168F7
:100EC0000278114481607047000000200B4810B583
:100ED000016841F400710160016841F480610160C2
:100EE000016841F480710160032000F06FF8002078
:100EF00000F006F800F024F8002010BD003C02408D
:100F000070B50D4D04464FF47A712878B1FBF0F0BE
:100F10000A490968B1FBF0F000F06AF848B9102CF2
:100F200007D200222146501E00F030F800206C60ED
:100F300070BD012070BD0000000000200C000020EA
:100F40000A4808B5016841F480410160006800F476
:100F5000804000900548001F016841F08051016009
:100F6000006800F08050009008BD00004438024046
:100F7000002809DB00F01F02012191404009800098
:100F800000F1E020C0F8001170470000F0B40E4BF3
:100F90001B680C46C3F30223C3F10705042D00D9D7
:100FA0000425191D072901D2002300E0DB1E0126BC
:100FB00006FA05F1491E214099409E40761E1640D2
:100FC0003143F0BC00F099B80CED00E0064900F0A8
:100FD000070208684FF6FF03184040EA0220034A60
:100FE00010430860704700000CED00E00000FA05B7
:100FF00010B5401EB0F1807F01D3012010BD4FF02D
:10100000E02460610F21601700F077F80020A061F4
:1010100007202061002010BDFEE700007FB50024FE
:1010200012480094019402940F490394C0E90014FB
:101030004FF08071046181600125057680F82040C1
:101040000B49C0E90A14C561C46080F830404561AD
:10105000FFF767FB04200094CDE90150694603487F
:10106000FFF718FA7FBD00000020014010000020AB
:101070000100000F30B587B014216846FFF7ADF8C6
:1010800011480024016841F001010160016801F08C
:1010900001010591016841F00801016000680B4DF4
:1010A00000F008000590224601212846FFF7FAFECD
:1010B00001210091CDE90114694628460394FFF708
:1010C00027FE07B030BD000030380240000C02405F
:1010D000FEE7704770477047FFF7F0BE05480168AC
:1010E00041F47001016003494FF0006080390860ED
:1010F0007047000088ED00E0FEE70907090E0028B0
:1011000004DB00F1E02080F80014704700F00F00CD
:1011100000F1E02080F8141D704702E008C8121F9B
:1011200008C1002AFAD170477047002001E001C1D0
:10113000121F002AFBD1704708B5FFF7C7FEFFF763
:1011400099FF1648016841F480010160006800229F
:1011500000F48000009011463820FFF717FF382078
:10116000FFF706FFFFF75AFF4FF47A750C4EAF00FA
:10117000012221460B48FFF753FB2846FFF7B6FD37
:101180000848FFF7CDFBBC4201D9012200E0002254
:1011900001213046FFF786FEEAE7000030380240C2
:1011A000000C024010000020000610160006101669
:1011B000D011000800000020100000001A110008E3
:1011C000E011000810000020A80400002A11000807
:1011D0000100000010000000000000000024F400E6
:040000050800019559
:00000001FF
