:100000000C9462000C948A000C948A000C948A0070
:100010000C948A000C948A000C948A000C948A0038
:100020000C948A000C948A000C948A000C948A0028
:100030000C948A000C948A000C948A000C948A0018
:100040000C94B3020C948A000C9481020C945B0211
:100050000C948A000C948A000C948A000C948A00F8
:100060000C948A000C948A00000000080002010031
:100070000003040700000000000000000000000072
:10008000250028002B0000000000240027002A0083
:1000900000000000230026002900040404040404D6
:1000A0000404020202020202030303030303010227
:1000B00004081020408001020408102001020408F6
:1000C0001020FB0411241FBECFEFD8E0DEBFCDBF50
:1000D00011E0A0E0B1E0E8E3FEE002C005900D927F
:1000E000A432B107D9F721E0A4E2B1E001C01D922A
:1000F000AA3CB207E1F710E0C2E6D0E004C02197C5
:10010000FE010E941407C136D107C9F70E944203BD
:100110000C941A070C940000AF92BF92CF92DF921A
:10012000EF92FF920F931F93CF93DF936C017B01AC
:100130008B01040F151FEB015E01AE18BF08C0173D
:10014000D10759F06991D601ED91FC910190F081B0
:10015000E02DC6010995892B79F7C501DF91CF9173
:100160001F910F91FF90EF90DF90CF90BF90AF90D5
:100170000895FC01538D448D252F30E0842F90E0AD
:10018000821B930B541710F0CF9608950197089592
:10019000FC01918D828D981761F0A28DAE0FBF2F5B
:1001A000B11D5D968C91928D9F5F9F73928F90E0B1
:1001B00008958FEF9FEF0895FC01918D828D981720
:1001C00031F0828DE80FF11D858D90E008958FEF5D
:1001D0009FEF0895FC01918D228D892F90E0805C26
:1001E0009F4F821B91098F73992708958DE291E0AB
:1001F0000E94EA0021E0892B09F420E0822F089573
:1002000080E090E0892B29F00E94F60081110C9487
:1002100000000895FC01A48DA80FB92FB11DA35AA9
:10022000BF4F2C91848D90E001968F739927848F16
:10023000A689B7892C93A089B1898C918370806439
:100240008C93938D848D981306C00288F389E02DDA
:1002500080818F7D80830895EF92FF920F931F938B
:10026000CF93DF93EC0181E0888F9B8D8C8D981369
:100270001AC0E889F989808185FF15C09FB7F89475
:10028000EE89FF896083E889F989808183708064C1
:1002900080839FBF81E090E0DF91CF911F910F910C
:1002A000FF90EF900895F62E0B8D10E00F5F1F4F1B
:1002B0000F731127E02E8C8D8E110CC00FB607FC2A
:1002C000FACFE889F989808185FFF5CFCE010E94B8
:1002D0000A01F1CFEB8DEC0FFD2FF11DE35AFF4F1B
:1002E000F0829FB7F8940B8FEA89FB898081806246
:1002F000CFCFCF93DF93EC01888D8823B9F0AA8903
:10030000BB89E889F9898C9185FD03C0808186FDD0
:100310000DC00FB607FCF7CF8C9185FFF2CF80811F
:1003200085FFEDCFCE010E940A01E9CFDF91CF9189
:10033000089590E0FC01E859FF4F2491FC01E2553B
:10034000FF4F3491FC01E656FF4FE491EE23C9F0D4
:10035000222339F0233001F1A8F4213019F12230A1
:1003600029F1F0E0EE0FFF1FE458FF4FA591B49183
:100370008FB7F894EC91611126C030953E233C93E1
:100380008FBF08952730A9F02830C9F0243049F7ED
:10039000809180008F7D03C0809180008F77809353
:1003A0008000DFCF84B58F7784BDDBCF84B58F7DB0
:1003B000FBCF8091B0008F778093B000D2CF809137
:1003C000B0008F7DF9CF3E2BDACF3FB7F894809104
:1003D000290190912A01A0912B01B0912C0126B501
:1003E000A89B05C02F3F19F00196A11DB11D3FBF6D
:1003F000BA2FA92F982F8827BC01CD01620F711D3C
:10040000811D911D42E0660F771F881F991F4A9535
:10041000D1F70895FC0101900020E9F73197AF0171
:10042000481B590BBC018DE291E00C948C008F921B
:100430009F92AF92BF920F931F93CF93DF93CDB74D
:10044000DEB7A1970FB6F894DEBF0FBECDBF19A2DD
:10045000423008F44AE08E010F5D1F4F842E912C2C
:10046000B12CA12CA50194010E94F206E62FB9013E
:10047000CA01EA30F4F4E05DD801EE938D01232B3C
:10048000242B252B79F790E080E0109719F0CD010F
:100490000E940A02A1960FB6F894DEBF0FBECDBF30
:1004A000DF91CF911F910F91BF90AF909F908F9050
:1004B0000895E95CE1CF1F920F920FB60F921124BD
:1004C0002F933F934F935F936F937F938F939F935C
:1004D000AF93BF93EF93FF938DE291E00E940A01E7
:1004E000FF91EF91BF91AF919F918F917F916F910C
:1004F0005F914F913F912F910F900FBE0F901F90E2
:1005000018951F920F920FB60F9211242F938F936D
:100510009F93EF93FF93E0913D01F0913E01808125
:10052000E0914301F091440182FD1BC090818091D4
:1005300046018F5F8F7320914701821741F0E09150
:100540004601F0E0E35DFE4F958F80934601FF91F9
:10055000EF919F918F912F910F900FBE0F901F9051
:1005600018958081F4CF1F920F920FB60F9211242D
:100570002F933F938F939F93AF93BF9380912501C8
:1005800090912601A0912701B0912801309124017A
:1005900023E0230F2D3758F50196A11DB11D20939F
:1005A00024018093250190932601A0932701B09305
:1005B00028018091290190912A01A0912B01B091ED
:1005C0002C010196A11DB11D8093290190932A0150
:1005D000A0932B01B0932C01BF91AF919F918F916C
:1005E0003F912F910F900FBE0F901F90189526E806
:1005F000230F0296A11DB11DD2CFCF92DF92EF92B1
:10060000FF920F931F93E82FF92F05C00150110996
:100610002109310961F1908196239417B9F305C03E
:10062000015011092109310911F190819623941388
:10063000F7CFC12CD12CE12CF12C0AC08FEFC81AB6
:10064000D80AE80AF80A0C151D052E053F0579F0B1
:1006500080818623841791F36C2D7D2D8E2D9F2D07
:100660001F910F91FF90EF90DF90CF90089560E081
:1006700070E080E090E01F910F91FF90EF90DF908D
:10068000CF900895789484B5826084BD84B58160EC
:1006900084BD85B5826085BD85B5816085BD80914D
:1006A0006E00816080936E001092810080918100C5
:1006B00082608093810080918100816080938100BD
:1006C000809180008160809380008091B10084607F
:1006D0008093B1008091B00081608093B0008091E0
:1006E0007A00846080937A0080917A00826080939F
:1006F0007A0080917A00816080937A0080917A00FC
:10070000806880937A001092C100E0913D01F091E1
:100710003E0182E08083E0913901F0913A0110823C
:10072000E0913B01F0913C018FEC808310924501F8
:10073000E0914101F091420186E08083E0913F0128
:10074000F0914001808180618083E0913F01F091D0
:100750004001808188608083E0913F01F0914001F9
:10076000808180688083E0913F01F0914001808129
:100770008F7D8083EBEBF0E02491E7EAF0E0849159
:10078000882399F090E0880F991FFC01EA57FF4FEA
:10079000A591B491FC01E458FF4F859194918FB7D6
:1007A000F894EC91E22BEC938FBFEAEBF0E024910C
:1007B00056EA252E50E0352EF10184918823C1F0B0
:1007C00090E0880F991FFC01EA57FF4FA591B49163
:1007D000FC01E458FF4FC591D4913FB7F8949C9128
:1007E000822F809598239C939881892388833FBF8B
:1007F000C3E0D0E02FE0A22EB12C30E0832E30E019
:10080000932E60E08DE00E949901CE010197F1F7EF
:1008100061E08DE00E949901C5010197F1F7EAEBD3
:10082000F0E06491F1018491E82FF0E0EE0FFF1FFA
:10083000E057FF4F8591949100E412E42FE030E0FF
:10084000462F0E94FD02611571058105910529F071
:100850006F5F7F4F8F4F9F4F9F700E94C90520E0B1
:1008600030E040E05FE30E94800626E933E44BE09D
:100870005DE30E9480066B017C01AC019B010E943C
:10088000ED068823E1F182E191E00E940A028EE107
:1008900091E00E940A0281E291E00E940A020E9415
:1008A000E5012B013C0188ECC82ED12CE12CF12C68
:1008B0000E94E5016419750986099709683E73402D
:1008C00081059105A8F3F1E0CF1AD108E108F108FC
:1008D00028EE420E23E0521E611C711CC114D1048B
:1008E000E104F10429F78114910409F48ACF0E94EC
:1008F000F600882309F485CF0E94000082CF2FEFF5
:100900003FEF4FE75FE7C701B6010E94ED06811197
:100910000DC02FEF3FEF4FE75FE7C701B6010E9421
:10092000950518161CF486E191E0AFCF2FEF3FEF4D
:100930004FE75FE4C701B6010E947B0618161CF45E
:100940008AE191E0A2CF2FEF3FEF4FE75FECC701C5
:10095000B6010E94950587FDF3CF2AE037ED43EA03
:100960005BE3C701B6010E9429052B013C010E94EF
:100970009A056B017C010E94C9059B01AC01C30172
:10098000B2010E9428052B013C014AE0C701B601D3
:100990000E9417026EE28DE291E00E942C0120E09D
:1009A00030E040E251E4C301B2010E9480062B0115
:1009B0003C010E949A056B01F12CE12C4AE0C70131
:1009C000B6010E941702C701B6010E94C9059B012A
:1009D000AC01C301B2010E94280520E030E040E2F2
:1009E00051E40E9480060E949A0590E080E04AE06F
:1009F0000E9417024CCFEDE2F1E01382128288EEE2
:100A000093E0A0E0B0E084839583A683B78384E07D
:100A100091E09183808385EC90E09587848784ECD6
:100A200090E09787868780EC90E0918B808B81ECBB
:100A300090E0938B828B82EC90E0958B848B86EC9C
:100A400090E0978B868B118E128E138E148E0895E4
:100A50005058BB27AA270E9440050C9441060E94CB
:100A6000330638F00E943A0620F039F49F3F19F41B
:100A700026F40C9430060EF4E095E7FB0C942A065D
:100A8000E92F0E94520658F3BA17620773078407CA
:100A9000950720F079F4A6F50C9474060EF4E09511
:100AA0000B2EBA2FA02D0B01B90190010C01CA0128
:100AB000A0011124FF27591B99F0593F50F4503ED3
:100AC00068F11A16F040A22F232F342F4427585FC5
:100AD000F3CF469537952795A795F0405395C9F7DD
:100AE0007EF41F16BA0B620B730B840BBAF0915095
:100AF000A1F0FF0FBB1F661F771F881FC2F70EC034
:100B0000BA0F621F731F841F48F487957795679506
:100B1000B795F7959E3F08F0B0CF9395880F08F0F2
:100B20009927EE0F9795879508950E94060608F479
:100B300081E008950E945A0688F09F5798F0B92FD7
:100B40009927B751B0F0E1F0660F771F881F991F02
:100B50001AF0BA95C9F714C0B13091F00E9474062A
:100B6000B1E008950C947406672F782F8827B85F3A
:100B700039F0B93FCCF3869577956795B395D9F75A
:100B80003EF490958095709561957F4F8F4F9F4F64
:100B90000895E89409C097FB3EF490958095709570
:100BA00061957F4F8F4F9F4F9923A9F0F92F96E9B9
:100BB000BB279395F695879577956795B795F1112E
:100BC000F8CFFAF4BB0F11F460FF1BC06F5F7F4FCB
:100BD0008F4F9F4F16C0882311F096E911C07723DD
:100BE00021F09EE8872F762F05C0662371F096E8E6
:100BF000862F70E060E02AF09A95660F771F881FB5
:100C0000DAF7880F9695879597F90895990F000858
:100C1000550FAA0BE0E8FEEF16161706E807F907CE
:100C2000C0F012161306E407F50798F0621B730B69
:100C3000840B950B39F40A2661F0232B242B252BEA
:100C400021F408950A2609F4A140A6958FEF811D8D
:100C5000811D089597F99F6780E870E060E008952E
:100C60009FEF80EC089500240A94161617061806C4
:100C70000906089500240A941216130614060506A0
:100C80000895092E0394000C11F4882352F0BB0F31
:100C900040F4BF2B11F460FF04C06F5F7F4F8F4F94
:100CA0009F4F089557FD9058440F551F59F05F3FCF
:100CB00071F04795880F97FB991F61F09F3F79F07E
:100CC00087950895121613061406551FF2CF469500
:100CD000F1DF08C0161617061806991FF1CF869582
:100CE0007105610508940895E894BB276627772766
:100CF000CB0197F908950E94060608F48FEF089536
:100D00000E9493060C9441060E94330638F00E941C
:100D10003A0620F0952311F00C942A060C94300624
:100D200011240C9475060E94520670F3959FC1F32E
:100D3000950F50E0551F629FF001729FBB27F00D89
:100D4000B11D639FAA27F00DB11DAA1F649F6627DE
:100D5000B00DA11D661F829F2227B00DA11D621F2D
:100D6000739FB00DA11D621F839FA00D611D221FE7
:100D7000749F3327A00D611D231F849F600D211DCB
:100D8000822F762F6A2F11249F5750409AF0F1F04E
:100D900088234AF0EE0FFF1FBB1F661F771F881FB7
:100DA00091505040A9F79E3F510580F00C942A06BF
:100DB0000C9475065F3FE4F3983ED4F386957795DF
:100DC0006795B795F795E7959F5FC1F7FE2B880F5D
:100DD000911D9695879597F908950E940606880BB0
:100DE000990B0895A1E21A2EAA1BBB1BFD010DC091
:100DF000AA1FBB1FEE1FFF1FA217B307E407F507CB
:100E000020F0A21BB30BE40BF50B661F771F881FA6
:100E1000991F1A9469F760957095809590959B013C
:100E2000AC01BD01CF010895EE0FFF1F0590F491B5
:080E3000E02D0994F894FFCFB6
:100E3800000000002C018C00B9007901EA00C8000C
:100E4800DC006E616E00696E66006F766600636D29
:040E5800000D0A007F
:00000001FF
