:100000000C945C000C9479000C9479000C947900A9
:100010000C9479000C9479000C9479000C9479007C
:100020000C9479000C9479000C9479000C9479006C
:100030000C9479000C9479000C9479000C9479005C
:100040000C942B010C9479000C9479000C94790099
:100050000C9479000C9479000C9479000C9479003C
:100060000C9479000C947900000000002400270013
:100070002A0000000000250028002B0004040404CE
:100080000404040402020202020203030303030342
:10009000010204081020408001020408102001021F
:1000A00004081020000000080002010000030407FB
:1000B000000000000000000011241FBECFEFD8E0B8
:1000C000DEBFCDBF11E0A0E0B1E0E6E1F6E002C0A6
:1000D00005900D92A030B107D9F721E0A0E0B1E082
:1000E00001C01D92A331B207E1F70E9475010C9483
:1000F00009030C940000EEEAF0E02491EAE9F0E054
:100100009491E6E8F0E0E491EE23C9F0222339F07F
:10011000233001F1A8F4213019F1223029F1F0E067
:10012000EE0FFF1FEE58FF4FA591B4912FB7F89433
:10013000EC91811126C090959E239C932FBF08952A
:100140002730A9F02830C9F0243049F720918000E9
:100150002F7D03C0209180002F7720938000DFCF78
:1001600024B52F7724BDDBCF24B52F7DFBCF209185
:10017000B0002F772093B000D2CF2091B0002F7D18
:10018000F9CF9E2BDACF80E480937C0080917A00B7
:10019000806480937A0080917A0086FDFCCF809104
:1001A00078009091790008953FB7F8948091050107
:1001B00090910601A0910701B091080126B5A89B76
:1001C00005C02F3F19F00196A11DB11D3FBFBA2FE9
:1001D000A92F982F8827BC01CD01620F711D811DA9
:1001E000911D42E0660F771F881F991F4A95D1F72E
:1001F00008958F929F92AF92BF92CF92DF92EF922B
:10020000FF924B015C010E94D4006B017C010E94B3
:10021000D4006C197D098E099F09683E73408105E1
:100220009105A8F321E0821A9108A108B10888EE8F
:10023000C80E83E0D81EE11CF11C81149104A104B6
:10024000B10429F7FF90EF90DF90CF90BF90AF906F
:100250009F908F9008951F920F920FB60F921124C6
:100260002F933F938F939F93AF93BF9380910101FF
:1002700090910201A0910301B0910401309100011D
:1002800023E0230F2D3758F50196A11DB11D2093B2
:1002900000018093010190930201A0930301B093A8
:1002A00004018091050190910601A0910701B09190
:1002B00008010196A11DB11D8093050190930601CF
:1002C000A0930701B0930801BF91AF919F918F91C7
:1002D0003F912F910F900FBE0F901F90189526E819
:1002E000230F0296A11DB11DD2CFCF93DF93CDB7BF
:1002F000DEB728970FB6F894DEBF0FBECDBF789457
:1003000084B5826084BD84B5816084BD85B582601A
:1003100085BD85B5816085BD80916E0081608093CB
:100320006E00109281008091810082608093810034
:100330008091810081608093810080918000816044
:10034000809380008091B10084608093B10080919F
:10035000B00081608093B00080917A0084608093C7
:100360007A0080917A00826080937A0080917A008E
:10037000816080937A0080917A00806880937A000F
:100380001092C100EAE9F0E02491E6E8F0E08491FF
:10039000882399F090E0880F991FFC01E859FF4FDE
:1003A000A591B491FC01EE58FF4F859194918FB7C0
:1003B000F894EC91E22BEC938FBF82E5882E992480
:1003C0009394A12CB12C0E94C3009C01990F440B63
:1003D000550B2451310941095109A5EAB0E00E94A9
:1003E000CD02A50194010E94AE0229013A0188E2E2
:1003F000481A51086108710850920A014092090197
:1004000068E270E080E090E00E94F9000E94C30082
:100410009C01990F440B550B245131094109510995
:10042000A5EAB0E00E94CD02A50194010E94AE02AF
:1004300069017A0198E2C91AD108E108F108D0925D
:100440000C01C0920B0168E270E080E090E00E9435
:10045000F9000E94C3009C01990F440B550B2451D5
:10046000310941095109A5EAB0E00E94CD02A50178
:1004700094010E94AE02DA01C9018897A109B1096D
:1004800089839A83AB83BC8390930E0180930D0183
:1004900068E270E080E090E00E94F9000E94C300F2
:1004A0009C01990F440B550B245131094109510905
:1004B000A5EAB0E00E94CD02A50194010E94AE021F
:1004C000DA01C9018897A109B1098D839E83AF83A1
:1004D000B8879093100180930F0168E270E080E08C
:1004E00090E00E94F9000E94C3009C01990F440B08
:1004F000550B2451310941095109A5EAB0E00E9488
:10050000CD02A50194010E94AE0228523109410991
:1005100051093093120120931101C40CD51CA981FB
:10052000BA81CA0EDB1E8D819E81C80ED91E2C0D8C
:100530003D1D81E02E3B31050CF480E00E947B00E4
:1005400064E670E080E090E00E94F900A0E0B0E096
:10055000AB2B09F438CF0E94000035CF052E97FB56
:100560001EF400940E94C50257FD07D00E94D802D5
:1005700007FC03D04EF40C94C5025095409530957D
:1005800021953F4F4F4F5F4F0895909580957095FF
:1005900061957F4F8F4F9F4F08950E94FA02A59F4C
:1005A000900DB49F900DA49F800D911D112408956E
:1005B000A1E21A2EAA1BBB1BFD010DC0AA1FBB1F67
:1005C000EE1FFF1FA217B307E407F50720F0A21BD9
:1005D000B30BE40BF50B661F771F881F991F1A9446
:1005E00069F760957095809590959B01AC01BD0170
:1005F000CF010895A29FB001B39FC001A39F700DCA
:10060000811D1124911DB29F700D811D1124911D1A
:060610000895F894FFCFED
:00000001FF
