:100000000C94DF000C9407010C9407010C94070179
:100010000C9407010C9407010C9407010C94070140
:100020000C9407010C9407010C9407010C94070130
:100030000C9407010C9407010C9407010C94070120
:100040000C9476050C9407010C9444050C941E0541
:100050000C9407010C9407010C9407010C94070100
:100060000C9407010C94070100407A10F35A00A089
:10007000724E18090010A5D4E80000E87648170071
:1000800000E40B54020000CA9A3B000000E1F505B1
:10009000000080969800000040420F000000A086FB
:1000A00001000000102700000000E803000000002D
:1000B0006400000000000A000000000001000000D1
:1000C00000002C76D888DC674F0823DFC1DFAE59EB
:1000D000E1B1B796E5E3E453C63AE651997696E87E
:1000E000E6C28426EB898C9B62ED407C6FFCEFBC02
:1000F0009C9F40F2BAA56FA5F490055A2AF75C932D
:100100006B6CF9676DC11BFCE0E40D47FEF520E662
:10011000B500D0ED902E0300943577050080841E45
:10012000080000204E0A000000C80C333333330FA0
:10013000986E12831141EF8D2114893BE65516CF3D
:10014000FEE6DB18D1844B381BF77C1D901DA4BB49
:10015000E424203284725E228100C9F124ECA1E5FE
:100160003D2700000000240027002A0000000000B6
:10017000250028002B000000000023002600290095
:10018000040404040404040402020202020203033D
:100190000303030301020408102040800102040845
:1001A00010200102040810200000000800020100D5
:1001B000000304070000000000000000C005112437
:1001C0001FBECFEFD8E0DEBFCDBF21E0A6E3B1E098
:1001D00001C01D92AE3EB207E1F711E0A0E0B1E030
:1001E000EEEEFBE102C005900D92A633B107D9F700
:1001F00010E0CFEDD0E004C02197FE010E94FD0B7E
:10020000CE3DD107C9F70E94F5050C94F50D0C946D
:100210000000FC01538D448D252F30E0842F90E0A9
:10022000821B930B541710F0CF96089501970895F1
:10023000FC01918D828D981761F0A28DAE0FBF2FBA
:10024000B11D5D968C91928D9F5F9F73928F90E010
:1002500008958FEF9FEF0895FC01918D828D98177F
:1002600031F0828DE80FF11D858D90E008958FEFBC
:100270009FEF0895FC01918D228D892F90E0805C85
:100280009F4F821B91098F7399270895FC01A48DBC
:10029000A80FB92FB11DA35ABF4F2C91848D90E0A8
:1002A00001968F739927848FA689B7892C93A0898B
:1002B000B1898C91837080648C93938D848D981315
:1002C00006C00288F389E02D80818F7D80830895A8
:1002D000EF92FF920F931F93CF93DF93EC0181E096
:1002E000888F9B8D8C8D98131AC0E889F98980813D
:1002F00085FF15C09FB7F894EE89FF896083E88970
:10030000F98980818370806480839FBF81E090E061
:10031000DF91CF911F910F91FF90EF900895F62EEE
:100320000B8D10E00F5F1F4F0F731127E02E8C8D88
:100330008E110CC00FB607FCFACFE889F9898081CD
:1003400085FFF5CFCE010E944601F1CFEB8DEC0F7A
:10035000FD2FF11DE35AFF4FF0829FB7F8940B8FEA
:10036000EA89FB8980818062CFCFCF93DF93EC0154
:10037000888D8823B9F0AA89BB89E889F9898C918D
:1003800085FD03C0808186FD0DC00FB607FCF7CF49
:100390008C9185FFF2CF808185FFEDCFCE010E9449
:1003A0004601E9CFDF91CF91089580E491E00E946A
:1003B0003A0121E0892B09F420E0822F089580E0A2
:1003C00090E0892B29F00E94D50181110C94000046
:1003D0000895AF92BF92CF92DF92EF92FF920F9368
:1003E0001F93CF93DF936C017B018B01040F151FCB
:1003F000EB015E01AE18BF08C017D10759F0699133
:10040000D601ED91FC910190F081E02DC601099596
:10041000892B79F7C501DF91CF911F910F91FF9043
:10042000EF90DF90CF90BF90AF90089549E050E0FB
:1004300068E171E080E491E00C94E901833081F09F
:1004400028F4813099F08230A9F008958730A9F01E
:100450008830C9F08430B1F4809180008F7D03C072
:10046000809180008F7780938000089584B58F7786
:1004700084BD089584B58F7DFBCF8091B0008F77C8
:100480008093B00008958091B0008F7DF9CFCF9315
:10049000DF93282F30E0F901E855FE4F8491F901F0
:1004A000EC56FE4FD491F901E058FE4FC491CC2395
:1004B000A1F081110E941E02EC2FF0E0EE0FFF1F51
:1004C000EA58FE4FA591B491EC91ED2381E090E0C4
:1004D00009F480E0DF91CF91089580E090E0FACFB9
:1004E0001F93CF93DF93282F30E0F901E855FE4F9B
:1004F0008491F901EC56FE4FD491F901E058FE4F7A
:10050000C491CC23A9F0162F81110E941E02EC2F5A
:10051000F0E0EE0FFF1FE459FE4FA591B4918FB7A5
:10052000F894EC91111108C0D095DE23DC938FBFB5
:10053000DF91CF911F910895DE2BF8CFCF93DF93FA
:1005400090E0FC01EC56FE4F249180589E4FFC0138
:1005500084918823D1F090E0880F991FFC01EE5917
:10056000FE4FA591B491FC01E459FE4FC591D49181
:1005700061110EC09FB7F8948C91E22FE0958E2305
:100580008C932881E223E8839FBFDF91CF91089568
:100590008FB7F894EC91E22BEC938FBFF6CF3FB777
:1005A000F8948091380190913901A0913A01B0916D
:1005B0003B0126B5A89B05C02F3F19F00196A11D50
:1005C000B11D3FBFBA2FA92F982F8827BC01CD019D
:1005D000620F711D811D911D42E0660F771F881FFC
:1005E000991F4A95D1F708958F929F92AF92BF922B
:1005F000CF92DF92EF92FF924B015C010E94CF02FB
:100600006B017C010E94CF026C197D098E099F0944
:10061000683E734081059105A8F321E0821A910894
:10062000A108B10888EEC80E83E0D81EE11CF11CB9
:1006300081149104A104B10429F7FF90EF90DF9099
:10064000CF90BF90AF909F908F900895CF93C82F79
:10065000682F617082E00E947002C1FB662760F91A
:1006600083E00E947002C2FB662760F984E00E946A
:100670007002C3FB662760F985E00E947002C4FB2C
:10068000662760F986E00E947002C5FB662760F964
:1006900087E00E947002C6FB662760F988E00E942E
:1006A00070026C2F661F6627661F89E0CF910C943D
:1006B0007002FF920F931F93CF93DF938C01D0E0D2
:1006C000C0E0D80114968D919C911597C817D90751
:1006D00020F4ED91FC91309759F510923601E6E344
:1006E000F1E02081222351F1C817D90728F4D8015D
:1006F000ED91FC913097F9F410923601E6E3F1E0C8
:10070000F08061E080E00E9470028F2D0E9426033D
:1007100060E081E00E94700261E081E00E9470026E
:1007200061E070E080E090E00E94F4022196C9CF81
:10073000EC0FFD1FD6CFEC0FFD1FE2CFDF91CF9165
:100740001F910F91FF900895CF93C82F60E080E034
:100750000E9470028C2F0E94260360E081E00E94BC
:10076000700261E081E00E94700261E070E080E070
:1007700090E0CF910C94F402FC018081918100976C
:1007800011F00C949F0C0895EF92FF921F93CF935A
:10079000DF9361E08091E3010E9470026AEF70E0F4
:1007A00080E090E00E94F4022FB7F89480913C0121
:1007B00090913D01A0913E01B0913F012FBF40912A
:1007C000E5015091E6016091E7017091E80184171D
:1007D0009507A607B70740F41092E5011092E601CD
:1007E0001092E7011092E8012091E901211118C04F
:1007F0004091E5015091E6016091E7017091E801B7
:10080000841B950BA60BB70B803D9740A105B10546
:1008100038F481E0DF91CF911F91FF90EF90089520
:100820001092E9012FB7F89480913C0190913D011D
:10083000A0913E01B0913F012FBF8093E5019093BD
:10084000E601A093E701B093E8011092E101109254
:10085000E0011092DF011092DE011092DD0161E0F3
:100860008091E3010E949E0260E08091E3010E947A
:10087000700264E170E080E090E00E94F402F8947D
:1008800061E08091E3010E9470028BE990E00197A2
:10089000F1F760E08091E3010E949E0210E081E0A8
:1008A000C0E0D0E0E82EF12C8091E3010E944702E5
:1008B0008E159F0519F4DF5FDF3FB1F78091E301EB
:1008C0000E944702DF3FA1F0C43078F0C0FD0DC0A8
:1008D000E12FE695E695E695F0E0E352FE4F908134
:1008E000990FD73008F590831F5FCF5FC535C9F6E4
:1008F00078941832B8F04091E1012091DD018091A7
:10090000DE01280F3327331F8091DF01280F311DAF
:100910008091E001820F932F911D992748171906A6
:1009200009F477CF80E076CF9160DDCFEF92FF9230
:100930000F931F93CF93DF93EC017B018A01888192
:100940009981009729F02A813B812417350788F483
:10095000B8016F5F7F4F0E94280D009791F0998337
:1009600088831B830A832C813D81232B11F4FC0196
:1009700010821D830C83B701888199810E94EE0D3E
:100980000CC088819981009711F00E949F0C1982F8
:1009900018821D821C821B821A82CE01DF91CF91A8
:1009A0001F910F91FF90EF900895EF92FF920F9398
:1009B0001F93CF93DF93CDB7DEB7A1970FB6F8940F
:1009C000DEBF0FBECDBF7C01CB01BA01F7011182A2
:1009D000108213821282158214828E010F5F1F4FC4
:1009E00021E043E00E9497070097C9F0FC010190C5
:1009F0000020E9F73197AF01481B590BBC01C70133
:100A00000E949604A1960FB6F894DEBF0FBECDBF2C
:100A1000DF91CF911F910F91FF90EF900895F70113
:100A200080819181009711F00E949F0CF701118243
:100A300010821582148213821282E4CF1F920F92C9
:100A40000FB60F9211242F933F934F935F936F93A1
:100A50007F938F939F93AF93BF93EF93FF9380E424
:100A600091E00E944601FF91EF91BF91AF919F915C
:100A70008F917F916F915F914F913F912F910F9047
:100A80000FBE0F901F9018951F920F920FB60F92E6
:100A900011242F938F939F93EF93FF93E091500135
:100AA000F09151018081E0915601F091570182FD52
:100AB0001BC09081809159018F5F8F7320915A01E3
:100AC000821741F0E0915901F0E0E05CFE4F958F14
:100AD00080935901FF91EF919F918F912F910F90EA
:100AE0000FBE0F901F9018958081F4CF1F920F9228
:100AF0000FB60F9211242F933F938F939F93AF9331
:100B0000BF9380913C0190913D01A0913E01B09135
:100B10003F013091370123E0230F2D3758F501961F
:100B2000A11DB11D2093370180933C0190933D019D
:100B3000A0933E01B0933F0180913801909139011B
:100B4000A0913A01B0913B010196A11DB11D809386
:100B5000380190933901A0933A01B0933B01BF91C2
:100B6000AF919F918F913F912F910F900FBE0F905A
:100B70001F90189526E8230F0296A11DB11DD2CF14
:100B8000E0E4F1E01382128288EE93E0A0E0B0E0AE
:100B900084839583A683B7838AE091E091838083E1
:100BA00085EC90E09587848784EC90E09787868732
:100BB00080EC90E0918B808B81EC90E0938B828B2A
:100BC00082EC90E0958B848B86EC90E0978B868B03
:100BD000118E128E138E148EEDEDF1E08CE0868373
:100BE0008BE0878381E084870895CF93DF93CDB72F
:100BF000DEB762970FB6F894DEBF0FBECDBF789414
:100C000084B5826084BD84B5816084BD85B5826011
:100C100085BD85B5816085BD80916E0081608093C2
:100C20006E0010928100809181008260809381002B
:100C3000809181008160809381008091800081603B
:100C4000809380008091B10084608093B100809196
:100C5000B00081608093B00080917A0084608093BE
:100C60007A0080917A00826080937A0080917A0085
:100C7000816080937A0080917A00806880937A0006
:100C80001092C10060E08091E3010E949E0261E049
:100C90008091E3010E9470021092E5011092E6013A
:100CA0001092E7011092E80161E082E00E949E024A
:100CB00061E083E00E949E0261E084E00E949E0267
:100CC00061E085E00E949E0261E086E00E949E0253
:100CD00061E087E00E949E0261E088E00E949E023F
:100CE00061E089E00E949E0261E080E00E949E0235
:100CF00061E081E00E949E0200E010E00E94C403D7
:100D0000882341F08091E4018B3069F018F085511F
:100D1000823040F10E941602812C912C90ECA92E79
:100D20009FE7B92E09C06091DD0170E090E080E09E
:100D30000E94EC094B015C010E94C403882349F026
:100D40008091E4018B3079F120F08551823008F4F4
:100D5000C3C00E941602C12CD12C80ECE82E8FE774
:100D6000F82E2AC06091DD0170E090E080E00E94E2
:100D7000EC0920E030E040E853E40E94290A6B01CE
:100D80007C016091DE0170E090E080E00E94EE095D
:100D9000A70196010E941F0B20E030E040E251E4E1
:100DA0000E948B0BC7CF6091DF0170E090E080E084
:100DB0000E94EC096B017C0181E00E94A4038CE09D
:100DC0000E94A4031A8219821C821B821E821D8229
:100DD0004AE050E062E271E0CE0101960E94960482
:100DE000CE0101960E945903CE0101960E94BC03D8
:100DF000B701A601CE010D960E94D5041A82198270
:100E00001C821B821E821D826D857E856115710587
:100E100031F049895A89CE0101960E949604CE018B
:100E200001960E945903CE0101960E94BC0388E3FB
:100E30000E94A40380EC0E94A4031A8219821C82DF
:100E40001B821E821D8247E050E06DE271E0CE0100
:100E500001960E949604CE0101960E945903CE018C
:100E600001960E94BC03B501A401CE0107960E9421
:100E7000D5041A8219821C821B821E821D826F81F8
:100E800078856115710531F04B855C85CE01019641
:100E90000E949604CE0101960E945903CE0101964C
:100EA0000E94BC0364E670E080E090E00E94F402DF
:100EB000CE0107960E94BC03CE010D960E94BC0392
:100EC0000115110509F41ACF0E94D501882309F4F0
:100ED00015CF0E94000012CF7090DF01672D6F7751
:100EE00070E090E080E00E94EE0920E030E040E811
:100EF00053E40E94290A6B017C016091E00170E0DB
:100F000090E080E00E94EE09A70196010E941F0B6D
:100F100020E030E040E251E40E948B0B6B017C0149
:100F200077FE4ACFF7FAF094F7F8F09445CFEF92B6
:100F30000F931F93CF93DF93E80134E047FD34E133
:100F4000042E000C550B57FF03C0519541955109D4
:100F5000E32E022F242FAE010E94B507CE01DF91B0
:100F6000CF911F910F91EF900895A9E0B0E0EBEBC6
:100F7000F7E00C94ED0A6A01F22EB02E102FFBE37D
:100F8000AF2EA01608F41BE31F5F012F27E0AE0170
:100F90004F5F5F4F0E941409BC018981982F99709F
:100FA000913009F43FC09BE2E1FC04C09E2D91709A
:100FB000E0FC3AC05E2D5071E82FE87083FF46C018
:100FC00084E0911101C083E0EF2DE81B8F1508F03C
:100FD000E0E0D6018E2F20E2552351F1992329F02C
:100FE000D6019C93C60101966C0196012D5F3F4F7F
:100FF000E2FE24C08EE4D6018C9391E411969C937A
:10100000119712968C93D9018E2F90E281111BC0FB
:10101000E20FF32FF11D10828EEF9FEF2996ECE087
:101020000C94090B9DE2C6CF90E2C4CF2D93815062
:101030008111FCCFCE0ED11CE0E0D0CF8EE6D601E0
:101040008C9391E6DBCF9D938150E0CF482F447085
:1010500082FF3DC084E0911101C083E08F1510F440
:10106000EF2DE81BD6018E2F20E2552309F199239D
:1010700029F0D6019C93C60101966C0196012D5F63
:101080003F4FE2FE1BC089E4D6018C938EE411969B
:101090008C93119786E412968C93D9018E2F90E24F
:1010A000882309F4B5CF9D938150FACF2D938150B9
:1010B0008111FCCFCE0ED11CE0E0D9CF89E6D6015C
:1010C0008C938EE611968C93119786E6E4CF9B0164
:1010D00077FF02C030E020E0A1E0B0E0911102C053
:1010E000B0E0A0E0F9013196AE0FBF1F8B2C912C20
:1010F000BB2009F461C05401EFEFAE1ABE0AAA0D7D
:10110000BB1DFA161B0619F014F04F2D4A1B511186
:1011100088C0E3FC59C07601A42FB0E2A1114FC0F2
:10112000C40ED11C992309F45BC040E0D60111968E
:10113000F60190836D01552309F448C0012F060F75
:101140009A81582F507184FF03C0913309F40150E4
:1011500010160CF047C0093008F008E0EEE2FE2E51
:101160005B01A01AB10885019194819491082F3FE9
:10117000320729F4D601FC92F60131966F0162170D
:10118000730794F1021713077CF5DB01A21BB30B65
:10119000AA24A394B12CAC0EBD1EAA0DBB1D1196A2
:1011A0008C9121503109D601119628153905F4F09A
:1011B000F60180836D01DBCFB12CA12CA0CFF7010C
:1011C000B1937F01A150AACF9111B0CFD601942F36
:1011D00050E302C05D9391509111FCCFC40ED11C1D
:1011E00040E0ACCF01E0BACF80E3DBCF62177307FA
:1011F00031F4963388F4953311F4552369F0F601F0
:101200008083FD01842F90E2811108C0A40FB11DDD
:101210001C9290E080E002CF81E3F1CF9193815066
:10122000F3CF911183CF8ACF283008F027E03327FE
:10123000DA01990F311D87FD9160009661057105F6
:1012400039F432602E5F3D9330E32A95E1F708953B
:101250009F3F30F080387105610509F03C5F3C5FCD
:101260003D93913008F08068911DDF93CF931F93D9
:101270000F93FF92EF92192F987F9695E92F9695ED
:101280009695E90FFF27EE53FF4F99273327EE245A
:10129000FF24A701E70105900894079428F4360F6E
:1012A000E71EF81E491F511D660F771F881F991FE3
:1012B0000694A1F70590079428F4E70EF81E491F3D
:1012C000561FC11D770F881F991F661F0694A1F72F
:1012D0000590079428F4F80E491F561FC71FD11D0B
:1012E000880F991F661F771F0694A1F70590079432
:1012F00020F4490F561FC71FD81F990F661F771F6D
:10130000881F0694A9F784911095177041F0D6951F
:10131000C79557954795F794E7941A95C1F7E8E66E
:10132000F0E068941590159135916591959105902F
:101330007FE27395E118F10A430B560BC90BD009F4
:10134000C0F7E10CF11E431F561FC91FD01D7EF4CC
:10135000703311F48A95E6CFE894015030F0080F0D
:101360000AF40027021708F4202F2395022F7A335E
:1013700028F079E37D932A95E9F710C07D932A95AB
:1013800089F6069497956795379517951794E11800
:10139000F10A430B560BC90BD00998F023957E91A7
:1013A00073957A3308F070E37C932013B8F77E913D
:1013B00070617D9330F0839571E37D9370E32A959E
:1013C000E1F71124EF90FF900F911F91CF91DF91E2
:1013D000992787FD90950895E89409C097FB3EF4FE
:1013E00090958095709561957F4F8F4F9F4F992372
:1013F000A9F0F92F96E9BB279395F69587957795F0
:101400006795B795F111F8CFFAF4BB0F11F460FFAF
:101410001BC06F5F7F4F8F4F9F4F16C0882311F007
:1014200096E911C0772321F09EE8872F762F05C01B
:10143000662371F096E8862F70E060E02AF09A95B6
:10144000660F771F881FDAF7880F9695879597F9AB
:1014500008950E943C0A0C94AD0A0E949F0A38F03D
:101460000E94A60A20F0952311F00C94960A0C9481
:101470009C0A11240C94E10A0E94BE0A70F3959F05
:10148000C1F3950F50E0551F629FF001729FBB277B
:10149000F00DB11D639FAA27F00DB11DAA1F649F17
:1014A0006627B00DA11D661F829F2227B00DA11DCA
:1014B000621F739FB00DA11D621F839FA00D611D50
:1014C000221F749F3327A00D611D231F849F600D71
:1014D000211D822F762F6A2F11249F5750409AF09A
:1014E000F1F088234AF0EE0FFF1FBB1F661F771F26
:1014F000881F91505040A9F79E3F510580F00C94F1
:10150000960A0C94E10A5F3FE4F3983ED4F3869583
:1015100077956795B795F795E7959F5FC1F7FE2B90
:10152000880F911D9695879597F9089597F99F676C
:1015300080E870E060E008959FEF80EC089500245B
:101540000A941616170618060906089500240A9428
:1015500012161306140605060895092E0394000CAE
:1015600011F4882352F0BB0F40F4BF2B11F460FF3D
:1015700004C06F5F7F4F8F4F9F4F089557FD905866
:10158000440F551F59F05F3F71F04795880F97FB47
:10159000991F61F09F3F79F0879508951216130601
:1015A0001406551FF2CF4695F1DF08C01616170630
:1015B0001806991FF1CF8695710561050894089565
:1015C000E894BB2766277727CB0197F908952F92D8
:1015D0003F924F925F926F927F928F929F92AF92C3
:1015E000BF92CF92DF92EF92FF920F931F93CF9310
:1015F000DF93CDB7DEB7CA1BDB0B0FB6F894DEBFA7
:101600000FBECDBF09942A88398848885F846E84CC
:101610007D848C849B84AA84B984C884DF80EE8016
:10162000FD800C811B81AA81B981CE0FD11D0FB61F
:10163000F894DEBF0FBECDBFED0108955058BB2713
:10164000AA270E94360B0C94AD0A0E949F0A38F01C
:101650000E94A60A20F039F49F3F19F426F40C9456
:101660009C0A0EF4E095E7FB0C94960AE92F0E9481
:10167000BE0A58F3BA17620773078407950720F06C
:1016800079F4A6F50C94E00A0EF4E0950B2EBA2F2F
:10169000A02D0B01B90190010C01CA01A001112478
:1016A000FF27591B99F0593F50F4503E68F11A1624
:1016B000F040A22F232F342F4427585FF3CF4695B5
:1016C00037952795A795F0405395C9F77EF41F16D7
:1016D000BA0B620B730B840BBAF09150A1F0FF0FA1
:1016E000BB1F661F771F881FC2F70EC0BA0F621F8D
:1016F000731F841F48F4879577956795B795F7957D
:101700009E3F08F0B0CF9395880F08F09927EE0F11
:101710009795879508950E949F0B0C94AD0A0E949F
:10172000A60A58F00E949F0A40F029F45F3F29F072
:101730000C94960A51110C94E10A0C949C0A0E9494
:10174000BE0A68F39923B1F3552391F3951B550B0A
:10175000BB27AA2762177307840738F09F5F5F4F84
:10176000220F331F441FAA1FA9F335D00E2E3AF0C3
:10177000E0E832D091505040E695001CCAF72BD0DB
:10178000FE2F29D0660F771F881FBB1F261737072C
:101790004807AB07B0E809F0BB0B802DBF01FF275E
:1017A00093585F4F3AF09E3F510578F00C94960A9B
:1017B0000C94E10A5F3FE4F3983ED4F38695779565
:1017C0006795B795F7959F5FC9F7880F911D969517
:1017D000879597F90895E1E0660F771F881FBB1F73
:1017E000621773078407BA0720F0621B730B840B20
:1017F000BA0BEE1F88F7E0950895EE0FFF1F0590D6
:10180000F491E02D09940F931F93CF93DF938230CF
:10181000910510F482E090E0E091EC01F091ED018F
:1018200030E020E0B0E0A0E0309799F421153105D8
:1018300009F44AC0281B390B24303105D8F58A81B8
:101840009B816115710589F1FB0193838283FE0100
:1018500011C0408151810281138148175907E0F07E
:101860004817590799F4109761F012960C93129744
:1018700013961C933296CF01DF91CF911F910F9158
:1018800008950093EC011093ED01F4CF211531057B
:1018900051F04217530738F0A901DB019A01BD014D
:1018A000DF01F801C1CFEF01F9CF9093ED018093F3
:1018B000EC01CDCFFE01E20FF31F819391932250F3
:1018C000310939832883D7CF2091EA013091EB0188
:1018D000232B41F420910201309103013093EB015D
:1018E0002093EA0120910001309101012115310579
:1018F00041F42DB73EB74091040150910501241BDE
:10190000350BE091EA01F091EB01E217F307A0F447
:101910002E1B3F0B2817390778F0AC014E5F5F4F45
:101920002417350748F04E0F5F1F5093EB0140938B
:10193000EA01819391939FCFF0E0E0E09CCFCF93B9
:10194000DF930097E9F0FC01329713821282A09195
:10195000EC01B091ED01ED0130E020E01097A1F431
:1019600020813181820F931F2091EA013091EB0198
:101970002817390709F061C0F093EB01E093EA0101
:10198000DF91CF910895EA01CE17DF07E8F54A818C
:101990005B819E0141155105B1F7E901FB83EA83A3
:1019A00049915991C40FD51FEC17FD0761F480814F
:1019B00091810296840F951FE90199838883828122
:1019C00093819B838A83F0E0E0E012968D919C9155
:1019D00013970097B9F52D913C911197CD0102967F
:1019E000820F931F2091EA013091EB0128173907EC
:1019F00039F6309751F51092ED011092EC01B09349
:101A0000EB01A093EA01BCCFD383C2834081518113
:101A1000840F951FC817D90761F44E5F5F4F888107
:101A20009981480F591F518340838A819B819383F9
:101A300082832115310509F0B0CFF093ED01E093D9
:101A4000EC019ECFFD01DC01C0CF13821282D7CF03
:101A5000B0E0A0E0EEE2FDE00C94E90A8C01009712
:101A600051F4CB010E94030C8C01C801CDB7DEB745
:101A7000E0E10C94050BFC01E60FF71F9C012250DE
:101A80003109E217F30708F49DC0D901CD91DC912B
:101A90001197C617D70798F0C530D10530F3CE019E
:101AA00004978617970708F3C61BD70B2297C19395
:101AB000D1936D937C93CF010E949F0CD6CF5B0195
:101AC000AC1ABD0A4C018C0E9D1EA091EC01B09188
:101AD000ED01512C412CF12CE12C109731F5809126
:101AE000EA019091EB018815990509F05CC0461652
:101AF000570608F058C080910001909101010097AD
:101B000041F48DB79EB74091040150910501841BAB
:101B1000950BE817F90708F055C0F093EB01E09337
:101B2000EA01F90171836083A0CF8D919C91119797
:101B300012966C90129713967C901397A815B9057E
:101B400059F56C0142E0C40ED11CCA14DB0420F12B
:101B5000AC014A195B09DA011296159780F062828E
:101B6000738251834083D9016D937C93E114F10416
:101B700071F0D7011396FC93EE93129776CF2296CD
:101B80008C0F9D1FF90191838083F301EFCFF093B8
:101B9000ED01E093EC0169CF4816590608F42C01D9
:101BA0007D01D3019ACFCB010E94030C7C010097E9
:101BB00049F0AE01B8010E94E50DC8010E949F0CDA
:101BC000870153CF10E000E050CFFB01DC0102C0E1
:101BD00001900D9241505040D8F70895FB01DC016F
:0E1BE00001900D920020E1F70895F894FFCFD8
:101BEE000000EE018000000000006801E90109011B
:101BFE00B5013A0118012C015265616420666169D4
:101C0E006C004E6869657420646F3A2000446F2042
:061C1E00616D3A20000098
:00000001FF
